:020000040000FA
:100000006802001069010000710100007301000026
:100010007501000077010000790100000000000078
:100020000000000000000000000000007B01000054
:100030007D010000000000007F0100008101000040
:1000400083010000830100008301000083010000A0
:100050008301000083010000830100008301000090
:100060008301000083010000830100008301000080
:100070008301000083010000830100008301000070
:100080008301000083010000830100008301000060
:100090008301000083010000830100008301000050
:1000A0008301000083010000830100008301000040
:1000B0008301000083010000830100008301000030
:1000C00083010000830100008301000000F002F8BA
:1000D00000F03AF80AA090E8000C82448344AAF1A8
:1000E0000107DA4501D100F02FF8AFF2090EBAE8A6
:1000F0000F0013F0010F18BFFB1A43F0010318475C
:10010000F805000018060000103A24BF78C878C12E
:10011000FAD8520724BF30C830C144BF04680C600D
:10012000704700000023002400250026103A28BF55
:1001300078C1FBD8520728BF30C148BF0B60704759
:100140001FB51FBD10B510BD00F0A6F81146FFF792
:10015000F7FF00F09DFA00F0C4F803B4FFF7F2FFD8
:1001600003BC00F0C3FA0000094880470948004773
:10017000FEE7FEE7FEE7FEE7FEE7FEE7FEE7FEE757
:10018000FEE7FEE704480549034A054B70470000B7
:10019000A9040000CD0000006800001068020010F3
:1001A0006800001053EA020C00F069802DE9F04B62
:1001B0004FF00006002B1FBFB3FA83F503FA05F4D6
:1001C00024FA05F65E4012BF1643B2FA82F502FA2F
:1001D00005F4C5F120051EBF22FA05FC44EA0C0413
:1001E000203556EA044C4FEA144418BF641C4FF003
:1001F00000084FF00009904271EB030C39D300293D
:1002000019BFB1FA81F701FA07F6B0FA80F700FAE0
:1002100007F6C7F120071EBF20FA07FC46EA0C06C6
:100220002037B6FBF4FCA7EB0507103F07F01F0BC8
:10023000CBF120060CFA0BFB2CFA06F644BFB346B2
:100240000026202FA4BF5E464FF0000B5BEA060C91
:1002500008BF4FF0010B19EB0B09ABFB027C48EB1D
:100260000608C01B06FB02CC0BFB03CC71EB0C0198
:10027000C1E70B46024641464846BDE8F08B13B540
:100280004FF000004FF00001AFF30080BDE81C40CC
:100290007047704770477047754600F029F8AE46C2
:1002A00005006946534620F00700854618B020B582
:1002B000FFF768FFBDE820404FF000064FF0000751
:1002C0004FF000084FF0000B21F00701AC46ACE8FE
:1002D000C009ACE8C009ACE8C009ACE8C0098D466B
:1002E00070470446AFF300802046FFF736FF00005A
:1002F000004870470400001070470000FFFFFFFF38
:100300002DE9F0477D480068C0F3016003287CD1E7
:100310007B48006810F0030006D0012833D0022883
:100320005FD003282ED100E000BF74480068C0F3FE
:10033000074000F101044FF002017248D0F8880034
:10034000C0F30E0000F10100A1FB00016E4B4FF065
:10035000000CA0FB037901FB039100FB0C1122466A
:1003600063463846FFF71EFF054668480068C0B27E
:1003700000F1010422464FF000032846FFF712FF68
:10038000634908605DE05D480068C0F3074000F124
:1003900001044FF002015B48D0F88800C0F30E0062
:1003A00000F10100A1FB00105A4A4FF0000CA1FB24
:1003B000027900FB029001FB0C012246634638469D
:1003C000FFF7F0FE054651480068C0B200F1010495
:1003D00022464FF000032846FFF7E4FE4C49086030
:1003E0002FE046480068C0F3074000F101044FF0D9
:1003F00002014448D0F88800C0F30E0000F101006B
:10040000A1FB00124FF4004000E01BE04FF000039E
:10041000A1FB007902FB009001FB03012246384654
:10042000FFF7C0FE054639480068C0B200F101047C
:1004300022464FF000032846FFF7B4FE3449086017
:1004400000BF2FE02E48006810F0030006D00128FE
:1004500010D0022819D0032823D100E000BF2B4878
:100460000068C0B200F101002749B1FBF0F0284953
:10047000086016E025480068C0B200F10100254977
:10048000B1FBF0F0224908600BE020480068C0B2E0
:1004900000F101004FF40041B1FBF0F01C4908608D
:1004A00000BF00BFBDE8F08720201B490860154849
:1004B000D0F8A00110F0200F05D000BF164800684A
:1004C00010F0400FFAD003201049086013480D497E
:1004D000C1F8A8011248134908604FF0010008490B
:1004E00008604FF00400A1F1040108600E480F49B4
:1004F000086040F201100E490860704788C00F4044
:100500000CC10F4000C00F4000093D0004C10F4066
:1005100000000010001BB700A0C10F4055515155FD
:1005200055545554ACC10F40DEF7EFEFC4C00F4037
:10053000C8C10F404FF470506549C8634FF4804004
:10054000C8634000C863704700214FF04022116724
:10055000022151607721D16000EB401101EB410194
:100560009161022151612021D163012151607047C5
:1005700000B503461846FFF7E7FF00BF4FF04020E5
:1005800080684FF0402189698842F7D300BD30B5BB
:1005900005460C46FFF7CEFF4D48456324B94FF49E
:1005A00080404B49C86303E04FF48040484988636A
:1005B0004FF40040464988630120FFF7D9FF4FF40C
:1005C00000404349C86330BDF0B504460D4604F011
:1005D000F000860129463046FFF7D9FF2007870C37
:1005E00029463846FFF7D3FF0120FFF7C1FFF0BDD2
:1005F00000B5384880683849084036498860344832
:10060000006A40F47C4032490862FFF793FF2020E3
:10061000FFF7AEFF00213320FFF7D6FF1E20FFF7C4
:10062000A7FF00213220FFF7CFFF1E20FFF7A0FF1A
:1006300000212820FFF7C8FF1E20FFF799FF0021A7
:100640000C20FFF7C1FF0120FFF792FF00210620D9
:10065000FFF7BAFF0120FFF78BFF00210120FFF712
:10066000B3FF0A20FFF784FF00BD30B50546002424
:100670000AE0285D0121FFF7A7FF641C102C03D1BD
:100680000021C020FFF7A0FF285D0028F1D130BD78
:100690001FB512A30FCB8DE80F00FFF705FFFFF783
:1006A0002FFEFFF7A5FF00218020FFF78DFF01201F
:1006B000FFF75EFF6846FFF7D8FF41F28830FFF78B
:1006C00057FF00210120FFF77FFF00BFFEE700007A
:1006D00000C0092000C00240FF3F00FC48656C6C70
:1006E0006F2C20776F726C64210000000149182084
:1006F000ABBEFEE726000200180700000000001055
:1007000004000000080100001C07000004000010A5
:0C0710006402000024010000C0C62D009F
:04000005000000CD2A
:00000001FF
